{
  "contractName": "KYCContract",
  "abi": [
    {
      "inputs": [],
      "stateMutability": "nonpayable",
      "type": "constructor"
    },
    {
      "anonymous": false,
      "inputs": [
        {
          "indexed": false,
          "internalType": "uint256",
          "name": "customerId",
          "type": "uint256"
        },
        {
          "indexed": false,
          "internalType": "string",
          "name": "name",
          "type": "string"
        },
        {
          "indexed": false,
          "internalType": "address",
          "name": "addedBy",
          "type": "address"
        }
      ],
      "name": "CustomerAdded",
      "type": "event"
    },
    {
      "inputs": [
        {
          "internalType": "uint256",
          "name": "",
          "type": "uint256"
        }
      ],
      "name": "customers",
      "outputs": [
        {
          "internalType": "string",
          "name": "name",
          "type": "string"
        },
        {
          "internalType": "bytes32",
          "name": "encryptedKYC",
          "type": "bytes32"
        },
        {
          "internalType": "address",
          "name": "addedBy",
          "type": "address"
        }
      ],
      "stateMutability": "view",
      "type": "function",
      "constant": true
    },
    {
      "inputs": [],
      "name": "getCurrentCustomerId",
      "outputs": [
        {
          "internalType": "uint256",
          "name": "",
          "type": "uint256"
        }
      ],
      "stateMutability": "view",
      "type": "function",
      "constant": true
    },
    {
      "inputs": [
        {
          "internalType": "string",
          "name": "name",
          "type": "string"
        },
        {
          "internalType": "string",
          "name": "kycData",
          "type": "string"
        },
        {
          "internalType": "string",
          "name": "secretKey",
          "type": "string"
        }
      ],
      "name": "addCustomer",
      "outputs": [],
      "stateMutability": "nonpayable",
      "type": "function"
    },
    {
      "inputs": [
        {
          "internalType": "uint256",
          "name": "customerId",
          "type": "uint256"
        },
        {
          "internalType": "string",
          "name": "kycData",
          "type": "string"
        },
        {
          "internalType": "string",
          "name": "secretKey",
          "type": "string"
        }
      ],
      "name": "verifyKYC",
      "outputs": [
        {
          "internalType": "bool",
          "name": "",
          "type": "bool"
        }
      ],
      "stateMutability": "view",
      "type": "function",
      "constant": true
    },
    {
      "inputs": [
        {
          "internalType": "uint256",
          "name": "customerId",
          "type": "uint256"
        }
      ],
      "name": "getCustomer",
      "outputs": [
        {
          "internalType": "string",
          "name": "name",
          "type": "string"
        },
        {
          "internalType": "address",
          "name": "addedBy",
          "type": "address"
        }
      ],
      "stateMutability": "view",
      "type": "function",
      "constant": true
    }
  ],
  "bytecode": "0x608060405234801561000f575f80fd5b5060018081905550610eb9806100245f395ff3fe608060405234801561000f575f80fd5b5060043610610055575f3560e01c80632ec9ec43146100595780638b96055b14610075578063c0abda2a146100a5578063c187ded1146100d7578063eb876f27146100f5575b5f80fd5b610073600480360381019061006e9190610725565b610126565b005b61008f600480360381019061008a91906107fc565b610256565b60405161009c919061089e565b60405180910390f35b6100bf60048036038101906100ba91906108b7565b610343565b6040516100ce939291906109b3565b60405180910390f35b6100df61040d565b6040516100ec91906109fe565b60405180910390f35b61010f600480360381019061010a91906108b7565b610416565b60405161011d929190610a17565b60405180910390f35b5f828260405160200161013a929190610a7f565b60405160208183030381529060405280519060200120905060405180606001604052808581526020018281526020013373ffffffffffffffffffffffffffffffffffffffff168152505f8060015481526020019081526020015f205f820151815f0190816101a89190610c9c565b50602082015181600101556040820151816002015f6101000a81548173ffffffffffffffffffffffffffffffffffffffff021916908373ffffffffffffffffffffffffffffffffffffffff1602179055509050507fbb931f846cfd816e3b6a197c6abdbd4a4b1d8117280af3d9a798d2868d763a32600154853360405161023193929190610d6b565b60405180910390a160015f81548092919061024b90610dd4565b919050555050505050565b5f8073ffffffffffffffffffffffffffffffffffffffff165f808681526020019081526020015f206002015f9054906101000a900473ffffffffffffffffffffffffffffffffffffffff1673ffffffffffffffffffffffffffffffffffffffff16036102f7576040517f08c379a00000000000000000000000000000000000000000000000000000000081526004016102ee90610e65565b60405180910390fd5b5f838360405160200161030b929190610a7f565b6040516020818303038152906040528051906020012090505f808681526020019081526020015f206001015481149150509392505050565b5f602052805f5260405f205f91509050805f01805461036190610acf565b80601f016020809104026020016040519081016040528092919081815260200182805461038d90610acf565b80156103d85780601f106103af576101008083540402835291602001916103d8565b820191905f5260205f20905b8154815290600101906020018083116103bb57829003601f168201915b505050505090806001015490806002015f9054906101000a900473ffffffffffffffffffffffffffffffffffffffff16905083565b5f600154905090565b60605f8073ffffffffffffffffffffffffffffffffffffffff165f808581526020019081526020015f206002015f9054906101000a900473ffffffffffffffffffffffffffffffffffffffff1673ffffffffffffffffffffffffffffffffffffffff16036104b9576040517f08c379a00000000000000000000000000000000000000000000000000000000081526004016104b090610e65565b60405180910390fd5b5f805f8581526020019081526020015f206040518060600160405290815f820180546104e490610acf565b80601f016020809104026020016040519081016040528092919081815260200182805461051090610acf565b801561055b5780601f106105325761010080835404028352916020019161055b565b820191905f5260205f20905b81548152906001019060200180831161053e57829003601f168201915b5050505050815260200160018201548152602001600282015f9054906101000a900473ffffffffffffffffffffffffffffffffffffffff1673ffffffffffffffffffffffffffffffffffffffff1673ffffffffffffffffffffffffffffffffffffffff16815250509050805f015181604001519250925050915091565b5f604051905090565b5f80fd5b5f80fd5b5f80fd5b5f80fd5b5f601f19601f8301169050919050565b7f4e487b71000000000000000000000000000000000000000000000000000000005f52604160045260245ffd5b610637826105f1565b810181811067ffffffffffffffff8211171561065657610655610601565b5b80604052505050565b5f6106686105d8565b9050610674828261062e565b919050565b5f67ffffffffffffffff82111561069357610692610601565b5b61069c826105f1565b9050602081019050919050565b828183375f83830152505050565b5f6106c96106c484610679565b61065f565b9050828152602081018484840111156106e5576106e46105ed565b5b6106f08482856106a9565b509392505050565b5f82601f83011261070c5761070b6105e9565b5b813561071c8482602086016106b7565b91505092915050565b5f805f6060848603121561073c5761073b6105e1565b5b5f84013567ffffffffffffffff811115610759576107586105e5565b5b610765868287016106f8565b935050602084013567ffffffffffffffff811115610786576107856105e5565b5b610792868287016106f8565b925050604084013567ffffffffffffffff8111156107b3576107b26105e5565b5b6107bf868287016106f8565b9150509250925092565b5f819050919050565b6107db816107c9565b81146107e5575f80fd5b50565b5f813590506107f6816107d2565b92915050565b5f805f60608486031215610813576108126105e1565b5b5f610820868287016107e8565b935050602084013567ffffffffffffffff811115610841576108406105e5565b5b61084d868287016106f8565b925050604084013567ffffffffffffffff81111561086e5761086d6105e5565b5b61087a868287016106f8565b9150509250925092565b5f8115159050919050565b61089881610884565b82525050565b5f6020820190506108b15f83018461088f565b92915050565b5f602082840312156108cc576108cb6105e1565b5b5f6108d9848285016107e8565b91505092915050565b5f81519050919050565b5f82825260208201905092915050565b5f5b838110156109195780820151818401526020810190506108fe565b5f8484015250505050565b5f61092e826108e2565b61093881856108ec565b93506109488185602086016108fc565b610951816105f1565b840191505092915050565b5f819050919050565b61096e8161095c565b82525050565b5f73ffffffffffffffffffffffffffffffffffffffff82169050919050565b5f61099d82610974565b9050919050565b6109ad81610993565b82525050565b5f6060820190508181035f8301526109cb8186610924565b90506109da6020830185610965565b6109e760408301846109a4565b949350505050565b6109f8816107c9565b82525050565b5f602082019050610a115f8301846109ef565b92915050565b5f6040820190508181035f830152610a2f8185610924565b9050610a3e60208301846109a4565b9392505050565b5f81905092915050565b5f610a59826108e2565b610a638185610a45565b9350610a738185602086016108fc565b80840191505092915050565b5f610a8a8285610a4f565b9150610a968284610a4f565b91508190509392505050565b7f4e487b71000000000000000000000000000000000000000000000000000000005f52602260045260245ffd5b5f6002820490506001821680610ae657607f821691505b602082108103610af957610af8610aa2565b5b50919050565b5f819050815f5260205f209050919050565b5f6020601f8301049050919050565b5f82821b905092915050565b5f60088302610b5b7fffffffffffffffffffffffffffffffffffffffffffffffffffffffffffffffff82610b20565b610b658683610b20565b95508019841693508086168417925050509392505050565b5f819050919050565b5f610ba0610b9b610b96846107c9565b610b7d565b6107c9565b9050919050565b5f819050919050565b610bb983610b86565b610bcd610bc582610ba7565b848454610b2c565b825550505050565b5f90565b610be1610bd5565b610bec818484610bb0565b505050565b5b81811015610c0f57610c045f82610bd9565b600181019050610bf2565b5050565b601f821115610c5457610c2581610aff565b610c2e84610b11565b81016020851015610c3d578190505b610c51610c4985610b11565b830182610bf1565b50505b505050565b5f82821c905092915050565b5f610c745f1984600802610c59565b1980831691505092915050565b5f610c8c8383610c65565b9150826002028217905092915050565b610ca5826108e2565b67ffffffffffffffff811115610cbe57610cbd610601565b5b610cc88254610acf565b610cd3828285610c13565b5f60209050601f831160018114610d04575f8415610cf2578287015190505b610cfc8582610c81565b865550610d63565b601f198416610d1286610aff565b5f5b82811015610d3957848901518255600182019150602085019450602081019050610d14565b86831015610d565784890151610d52601f891682610c65565b8355505b6001600288020188555050505b505050505050565b5f606082019050610d7e5f8301866109ef565b8181036020830152610d908185610924565b9050610d9f60408301846109a4565b949350505050565b7f4e487b71000000000000000000000000000000000000000000000000000000005f52601160045260245ffd5b5f610dde826107c9565b91507fffffffffffffffffffffffffffffffffffffffffffffffffffffffffffffffff8203610e1057610e0f610da7565b5b600182019050919050565b7f437573746f6d657220646f6573206e6f742065786973742100000000000000005f82015250565b5f610e4f6018836108ec565b9150610e5a82610e1b565b602082019050919050565b5f6020820190508181035f830152610e7c81610e43565b905091905056fea2646970667358221220cd3eeeda9f70778f97f16838a09fc9bbd579389416b48c08b69f08040f5a489c64736f6c63430008150033",
  "immutableReferences": {},
  "source": "// SPDX-License-Identifier: MIT\r\npragma solidity ^0.8.0;\r\n\r\ncontract KYCContract {\r\n\r\n    // Struct to store customer details\r\n    struct Customer {\r\n        string name;\r\n        bytes32 encryptedKYC; // Hashed KYC information\r\n        address addedBy;\r\n    }\r\n\r\n    // Mapping to store customers by unique ID\r\n    mapping(uint256 => Customer) public customers;\r\n\r\n    // Variable to track the current customer ID\r\n    uint256 private currentCustomerId;\r\n\r\n    // Event to notify when a customer is added\r\n    event CustomerAdded(uint256 customerId, string name, address addedBy);\r\n\r\n    // Constructor to initialize the current customer ID\r\n    constructor() {\r\n        currentCustomerId = 1; // Start IDs from 1\r\n    }\r\n\r\n// Getter function to access currentCustomerId\r\nfunction getCurrentCustomerId() public view returns (uint256) {\r\n    return currentCustomerId;\r\n}\r\n\r\n    // Function to create a new customer\r\n    function addCustomer(\r\n        string memory name,\r\n        string memory kycData,\r\n        string memory secretKey\r\n    ) public {\r\n        // Encrypt (hash) the KYC data using keccak256 with a secret key\r\n        bytes32 encryptedKYC = keccak256(abi.encodePacked(kycData, secretKey));\r\n\r\n        // Add customer details to the mapping\r\n        customers[currentCustomerId] = Customer({\r\n            name: name,\r\n            encryptedKYC: encryptedKYC,\r\n            addedBy: msg.sender\r\n        });\r\n\r\n        emit CustomerAdded(currentCustomerId, name, msg.sender);\r\n\r\n        // Increment the customer ID for the next customer\r\n        currentCustomerId++;\r\n    }\r\n\r\n\r\n    // Function to verify customer KYC data\r\n    function verifyKYC(\r\n        uint256 customerId,\r\n        string memory kycData,\r\n        string memory secretKey\r\n    ) public view returns (bool) {\r\n        require(customers[customerId].addedBy != address(0), \"Customer does not exist!\");\r\n\r\n        // Recompute the hash to compare with stored encryptedKYC\r\n        bytes32 encryptedKYC = keccak256(abi.encodePacked(kycData, secretKey));\r\n        return (encryptedKYC == customers[customerId].encryptedKYC);\r\n    }\r\n\r\n    // Function to get customer details (excluding KYC data for privacy)\r\n    function getCustomer(uint256 customerId)\r\n        public\r\n        view\r\n        returns (string memory name, address addedBy)\r\n    {\r\n        require(customers[customerId].addedBy != address(0), \"Customer does not exist!\");\r\n        Customer memory customer = customers[customerId];\r\n        return (customer.name, customer.addedBy);\r\n    }\r\n}\r\n\r\n\r\n\r\n\r\n\r\n    ",
  "sourcePath": "C:\\Users\\user\\OneDrive\\Desktop\\csFirst\\kyc-backend\\contracts\\KYCContract.sol",
  "compiler": {
    "name": "solc",
    "version": "0.8.21+commit.d9974bed.Emscripten.clang"
  },
  "schemaVersion": "3.4.16",
  "updatedAt": "2024-11-27T11:03:53.581Z",
  "networkType": "ethereum",
  "devdoc": {
    "kind": "dev",
    "methods": {},
    "version": 1
  },
  "userdoc": {
    "kind": "user",
    "methods": {},
    "version": 1
  }
}